S02300006B6368656E3036385F637573746F6D5F636F6E74726F6C6C6572312E737265638C
S113000045C0000060C000005EC000005CC000008D
S11300105AC0000058C0000056C0000054C0000080
S113002052C0000050C000004EC000004CC0000090
S11300304AC0000086C2000046C0000044C0000060
S113004042C0000040C000003EC000003CC00000B0
S11300503AC0000038C0000036C0000034C00000C0
S113006032C0000030C000002EC000002CC00000D0
S11300702AC0000028C0000026C0000024C00000E0
S113008022C0000020C000001EC0000011241FBEBA
S1130090CFEFD0E4DEBFCDBF13E0A0E0B1E0E2E9F2
S11300A0FBE000E00BBF02C007900D92A232B10743
S11300B0D9F723E0A2E2B3E001C01D92AC34B20749
S11300C0E1F724D364C59CCF88B95D985E985F9AA4
S11300D082E08A95F1F700C05F988FE99FE001976D
S11300E0F1F700C00000089588B95D9A5E985F9AA0
S11300F082E08A95F1F700C05F988FE99FE001974D
S1130100F1F700C0000008958FEF8AB987B98FE333
S11301109CE90197F1F700C0000088E3D5DF8CE08B
S1130120D3DF86E0D1DF81E0CFDF8FE99FE0019765
S1130130F1F700C0000080E8C7CF0895CF93DF93A4
S1130140EC018881882329F02196CEDF89918111E1
S1130150FCCFDF91CF91089581E0B6DF80E8B4CF82
S11301600895EF92FF920F931F93CF93DF93CDB730
S1130170DEB7C850D1400FB6F894DEBF0FBECDBF76
S1130180E0903803F090390324E8E2EFF1E0DE0177
S1130190119601900D922A95E1F724E8E6E7F2E042
S11301A0DE01AB57BF4F01900D922A95E1F78130E4
S11301B0910569F08230910581F0892B09F067C0BF
S11301C080913703813009F062C0C6DFE2C083E367
S11301D0E816F10409F0DDC084C08091370388304B
S11301E009F07FC054C080913603893039F4E5E3C7
S11301F0F3E0118280818F5F808303C08F5F8093DF
S1130200360381E861DFEE0CFF1C01E010E00C0F07
S11302101D1F0E0D1F1D92E2E90EF11CE1E0F0E03E
S1130220EC0FFD1FEE0EFF1EF80180810E5F1F4FC5
S11302305BDFE016F106C1F7E0903803F090390374
S113024081EC42DFEE0CFF1C05E810E00C0F1D1FD3
S11302500E0D1F1DF2E2EF0EF11C85E890E08C0FED
S11302609D1FE80EF91EF80180810E5F1F4F3CDFD1
S1130270E016F106C1F78091380390913903019695
S1130280909339038093380381E090E088C0E5E3DC
S1130290F3E010821182109239031092380380E83F
S11302A013DF8AEF92E04ADF80EC0EDF8BE093E00D
S11302B045DF42E050E062E070E083E393E040D445
S11302C08BEC02DF03E313E0F8018081805D0CDF37
S11302D08CECFADEF8018181805D06DF80E090E03D
S11302E05EC0E5E3F3E050814181252F30E0C90190
S11302F0880F991F220F331F220F331F220F331F22
S1130300820F931F840F911D90934803809347039A
S1130310E3E3F3E06081262F30E0D901AA0FBB1F8D
S1130320220F331F220F331F220F331F2A0F3B1FAD
S11303307181270F311D821793073CF4623028F432
S113034030934B0320934A030EC090934B03809346
S11303504A03E3E3F3E05083418342E050E062E088
S113036070E0CF01FDD380E8AFDE87E193E0E6DE05
S113037080ECAADE05E313E0F8018081805DB4DE41
S113038081ECA2DEF8018181805DAEDE82E090E046
S113039006C080913703803109F033CF24CFC85F82
S11303A0DE4F0FB6F894DEBF0FBECDBFDF91CF9105
S11303B01F910F91FF90EF9008950F931F93CF9388
S11303C0DF93883070F48B01880F880F880F805C6E
S11303D07BDEE801085F1F4F899186DEC017D107D5
S11303E0D9F7DF91CF911F910F910895CF92DF92AA
S11303F0EF92FF926B017C019B01AC0160912D0394
S113040070912E0380912F039091300320D2882382
S113041009F452C020E030E0A901C701B60117D2A7
S1130420811106C0E1E9F0E080818870808305C015
S1130430E1E9F0E080818360808328E539E344E7E3
S11304405FE3C701B60103D288233CF48FEF9FEF2B
S1130450909399008093980023C020E034E244EF05
S113046056E4C701B60105D318162CF4109299006E
S11304701092980015C020E030E040E053E4C7013A
S1130480B601FBD29B01AC0160E074E284EF9AE414
S1130490E2D149D261507109709399006093980038
S11304A01092950010929400C0922D03D0922E03C6
S11304B0E0922F03F0923003FF90EF90DF90CF9003
S11304C0089580E4809390008BE08093910060E035
S11304D070E0CB018BCF08956093CE017093CF0170
S11304E08093D0019093D10160933A0370933B03BE
S11304F080933C0390933D0308958BE080938100A7
S11305008DE790E0909389008093880082E0809347
S11305106F0010928500109284008091CE0190911A
S1130520CF01A091D001B091D10180933A0390936F
S11305303B03A0933C03B0933D038FB780688FBF08
S113054008951F920F920FB60F9211248F939F93C9
S1130550AF93BF9380913A0390913B03A0913C03E6
S1130560B0913D030197A109B10980933A03909397
S11305703B03A0933C03B0933D03892B8A2B8B2B25
S113058099F481E080933E038091CE019091CF0154
S1130590A091D001B091D10180933A0390933B0391
S11305A0A0933C03B0933D03BF91AF919F918F9172
S11305B00F900FBE0F901F901895809149038230C1
S11305C0F9F028F4882349F0813059F04BC0833086
S11305D039F1843009F440C045C081E08093490377
S11305E055C080913703813021F482E08093490320
S11305F056C0823009F04AC083E08093490368C042
S113060020913103309132038091CC019091CD013E
S1130610281739070CF443C084E08093490371C060
S113062080913703843019F4809349036AC0209180
S11306303103309132038091CC019091CD01281780
S113064039070CF445C083E090E090933203809323
S11306503103809349033CC0009B53C081E08093E5
S1130660490314C08230D9F030F4882351F081302A
S113067009F04BC00BC0833059F1843009F045C0F8
S113068040C0109232031092310308951092320345
S11306901092310360E070E0CB01A8CE0895E091A0
S11306A03103F0913203EE0FFF1FEE0FFF1FE050F6
S11306B0FF4F608171818281938198DE8091310343
S11306C090913203019690933203809331030895FD
S11306D0E0913103F0913203EE0FFF1FEE0FFF1F85
S11306E0E050FF4F60817181828193817FDE809130
S11306F03103909132030196909332038093310336
S1130700089560E070E0CB0171CE089583E081B973
S1130710CFEFC4B98CEF82B915B8C7B918B8CAB944
S11307201BB8CFDEE2E2F3E0C08381E090E0A0E01A
S1130730B0E081839283A383B48385839683A78364
S1130740B08781EB90E092878187DEDC05DD6AEE7D
S113075071E080E032DE62EE71E081E02EDE6AED6F
S113076071E082E02ADE62ED71E083E026DE6FE371
S113077073E084E022DE61E070E080E090E0ACDED3
S1130780BCDE41E450E060E070E002E213E00F2ED2
S1130790F1EFFF2EF02DC0EFD2EF4134510561058A
S11307A0710590F10ADFD80115964D915D916D9117
S11307B07C91189711968D919D910D90BC91A02DCF
S11307C0481759076A077B0781F4F801808101847F
S11307D0F285E02D082E000C990B0995D8018C9315
S11307E0F8011582168217821086F8018581968198
S11307F0A781B0850196A11DB11D85839683A7832A
S1130800B08740E050E0BA01F2B8C2B910923703A1
S113081080E090E0C2B904990AC0209137032F5FA9
S1130820082E01C0220F0A94EAF720933703D2B9A5
S113083001968830910571F780913E038823E1F396
S113084010923E034F5F5F4F6F4F7F4FA6CF9CD0F8
S113085008F481E008950CD0D2C0CAD040F0C1D0D1
S113086030F021F45F3F19F0B3C05111FCC0B6C0A1
S1130870D7D098F39923C9F35523B1F3951B550B9E
S1130880BB27AA2762177307840738F09F5F5F4F5F
S1130890220F331F441FAA1FA9F333D00E2E3AF0A0
S11308A0E0E830D091505040E695001CCAF729D0BA
S11308B0FE2F27D0660F771F881FBB1F2617370709
S11308C04807AB07B0E809F0BB0B802DBF01FF2739
S11308D093585F4F2AF09E3F510568F079C0C3C01A
S11308E05F3FECF3983EDCF3869577956795B79573
S11308F0F7959F5FC9F7880F911D9695879597F98E
S11309000895E1E0660F771F881FBB1F6217730706
S11309108407BA0720F0621B730B840BBA0BEE1F1B
S113092088F7E095089504D06894B1119CC00895A7
S11309307FD088F09F5790F0B92F9927B751A0F036
S1130940D1F0660F771F881F991F1AF0BA95C9F75F
S113095012C0B13081F086D0B1E0089583C0672F12
S1130960782F8827B85F39F0B93FCCF3869577950F
S11309706795B395D9F73EF49095809570956195F8
S11309807F4F8F4F9F4F0895990F0008550FAA0B63
S1130990E0E8FEEF16161706E807F907C0F012168E
S11309A01306E407F50798F0621B730B840B950B91
S11309B039F40A2661F0232B242B252B21F40895E6
S11309C00A2609F4A140A6958FEF811D811D089583
S11309D097F99F6780E870E060E008959FEF80ECEE
S11309E0089500240A941616170618060906089591
S11309F000240A9412161306140605060895092EF7
S1130A000394000C11F4882352F0BB0F40F4BF2B65
S1130A1011F460FF04C06F5F7F4F8F4F9F4F0895A5
S1130A2057FD9058440F551F59F05F3F71F047959B
S1130A30880F97FB991F61F09F3F79F08795089580
S1130A40121613061406551FF2CF4695F1DF08C09F
S1130A50161617061806991FF1CF869571056105BC
S1130A6008940895E894BB2766277727CB0197F964
S1130A7008958ADF08F48FEF08950BD0C0CFB1DF5B
S1130A8028F0B6DF18F0952309F0A2CFA7CF1124E0
S1130A90EACFC6DFA0F3959FD1F3950F50E0551F21
S1130AA0629FF001729FBB27F00DB11D639FAA27BF
S1130AB0F00DB11DAA1F649F6627B00DA11D661F0E
S1130AC0829F2227B00DA11D621F739FB00DA11D2F
S1130AD0621F839FA00D611D221F749F3327A00DE9
S1130AE0611D231F849F600D211D822F762F6A2F85
S1130AF011249F5750408AF0E1F088234AF0EE0F0A
S1130B00FF1FBB1F661F771F881F91505040A9F716
S1130B109E3F510570F05CCFA6CF5F3FECF3983E4B
S1130B20DCF3869577956795B795F795E7959F5F7D
S1130B30C1F7FE2B880F911D9695879597F9089517
S1130B40DC01CB01FC01F999FECF06C0F2BDE1BD89
S1130B50F89A319600B40D9241505040B8F7089578
S1130B60DC01CB0102C02D9105D041505040D8F793
S1130B700895262FF999FECF1FBA92BD81BD20BDDD
S1130B800FB6F894FA9AF99A0FBE01960895F8945C
S1050B90FFCF91
S1130B921FD592445C978A4400D0824448F176443B
S1130BA2000000005CFF43441FD512440000000013
S1130BB25CFF434448F17644000000005CFF434478
S1130BC21FD592440000000048F176445CFFC34400
S1130BD25CFFB8445CFFC3440000DC4466FEC344CB
S1130BE25CFFB8445CFFC344000000001FD592447C
S1130BF248F17644000000005CFF43445CFF384443
S1130C020000000000D024445CFF384400000000CF
S1130C125CFF434400005C440000000048F1764459
S1130C2200D0824448F1764400005C441FD59244CB
S1130C321FD592445C978A441FD592441FD592448F
S1130C4252D0A4445CFFB8445CFFB8441FD592441C
S1130C5200D0824400D0824400005C44330001008E
S1130C620000040E15040400000000000004081F24
S1130C72080404021F02040000000000000404151A
S1130C820E04040004000400040004000400030031
S1130C920400040001000400040004000400040031
S1130CA20400020004000400040004000400040020
S1130CB2040004000400030004000400040004000F
S1130CC20000040004000400020004000400040004
S1130CD201000400040004000400000004000400F5
S1130CE204000100040004000400040004000400E1
S1130CF204000400040004000400040004000400CE
S1130D0204000400040004000400040000000400C1
S1130D1204000400040004000400040004000400AD
S1130D2201000400040004000400040004000200A2
S1130D320400040001000400040003000400040091
S1130D42040004000400040003000400040004007E
S1130D52020004000400040004000400040004006F
S1130D620200030001000400040004000400040063
S1130D72040004000400040004000400040004004D
S1130D82040004000400040004005052455353209C
S1130D924120544F20424547494E00484947482084
S1130DA253434F5245200047414D45204F5645522B
S1050DB200003B
S9030000FC
